:100000000C942A000C9447000C9447000C94470071
:100010000C9447000C9447000C9447000C94470044
:100020000C9447000C9447000C9447000C94470034
:100030000C9447000C9447000C9447000C94470024
:100040000C9447000C9447000C9447000C94470014
:100050000C94470011241FBECFE5D8E0DEBFCDBF12
:1000600010E0A0E6B0E0E2E1F2E002C005900D92FF
:10007000A836B107D9F720E0A8E6B0E001C01D928C
:10008000A936B207E1F70E9453000C9407010C94C3
:10009000000084B3886084BB81B38B7F81BB81E027
:1000A0008093680008950E94490082E00E94BF008A
:1000B000682F80E00E945E00F8CFFFCFCF93DF93E0
:1000C000C82FD62F80916800813031F040E161E087
:1000D00088E790E00E945D00C43030F04AE061E0C3
:1000E00088E790E00E945D0080916800813009F00F
:1000F00043C08C2F90E0FC01EE0FFF1FE05AFF4F32
:100100002181213041F080F0223041F0233049F04C
:10011000A0E0B0E00BC0A8E3B0E008C0A5E3B0E009
:1001200005C0A2E3B0E002C0ABE3B0E0D13089F497
:100130002C91880F991FFC01E05AFF4F81E090E05D
:10014000008002C0880F991F0A94E2F7822B8C93DB
:1001500013C0D11111C02C91880F991FFC01E05AD6
:10016000FF4F81E090E0008002C0880F991F0A9441
:10017000E2F7809582238C93DF91CF910895CF93FE
:10018000C82F80916800813031F040E160E088E75D
:1001900090E00E945D00C43030F04AE060E088E703
:1001A00090E00E945D0080916800813069F58C2F9D
:1001B00090E0FC01EE0FFF1FE05AFF4F218121303C
:1001C00041F080F0223041F0233049F0E0E0F0E0EF
:1001D0000BC0E6E3F0E008C0E3E3F0E005C0E0E3D5
:1001E000F0E002C0E9E3F0E02081880F991FFC01F4
:1001F000E05AFF4F822F90E0008002C095958795CE
:100200000A94E2F7817001C080E0CF910895F894DC
:02021000FFCF1E
:080212000302040202030303CE
:00000001FF
